{
  "address": "0x9A19AF932d9FB35804F3c4971263370dE5f3B569",
  "abi": [
    {
      "inputs": [
        {
          "internalType": "uint256",
          "name": "entranceFee",
          "type": "uint256"
        },
        {
          "internalType": "address",
          "name": "vrfCoordinator",
          "type": "address"
        },
        {
          "internalType": "bytes32",
          "name": "keyHash",
          "type": "bytes32"
        },
        {
          "internalType": "uint64",
          "name": "subscriptionId",
          "type": "uint64"
        },
        {
          "internalType": "uint16",
          "name": "requestConfirmations",
          "type": "uint16"
        },
        {
          "internalType": "uint32",
          "name": "callbackGasLimit",
          "type": "uint32"
        },
        {
          "internalType": "uint256",
          "name": "lotteryInterval",
          "type": "uint256"
        }
      ],
      "stateMutability": "nonpayable",
      "type": "constructor"
    },
    {
      "inputs": [],
      "name": "Lottery__LotteryNotOpen",
      "type": "error"
    },
    {
      "inputs": [
        {
          "internalType": "uint256",
          "name": "timePassed",
          "type": "uint256"
        },
        {
          "internalType": "uint256",
          "name": "currentBalance",
          "type": "uint256"
        },
        {
          "internalType": "uint256",
          "name": "numPlayers",
          "type": "uint256"
        },
        {
          "internalType": "uint256",
          "name": "lotteryState",
          "type": "uint256"
        }
      ],
      "name": "Lottery__UpkeepNotNeeded",
      "type": "error"
    },
    {
      "inputs": [],
      "name": "Lottery__ValueLowerThanEntranceFee",
      "type": "error"
    },
    {
      "inputs": [],
      "name": "Lottery__WinnerTransferFailed",
      "type": "error"
    },
    {
      "inputs": [
        {
          "internalType": "address",
          "name": "have",
          "type": "address"
        },
        {
          "internalType": "address",
          "name": "want",
          "type": "address"
        }
      ],
      "name": "OnlyCoordinatorCanFulfill",
      "type": "error"
    },
    {
      "anonymous": false,
      "inputs": [
        {
          "indexed": true,
          "internalType": "address",
          "name": "player",
          "type": "address"
        }
      ],
      "name": "WinnerPickedEvent",
      "type": "event"
    },
    {
      "anonymous": false,
      "inputs": [
        {
          "indexed": true,
          "internalType": "address",
          "name": "player",
          "type": "address"
        }
      ],
      "name": "enterLotteryEvent",
      "type": "event"
    },
    {
      "anonymous": false,
      "inputs": [
        {
          "indexed": false,
          "internalType": "uint256",
          "name": "requestId",
          "type": "uint256"
        }
      ],
      "name": "requestRandomWinnerEvent",
      "type": "event"
    },
    {
      "inputs": [
        {
          "internalType": "bytes",
          "name": "",
          "type": "bytes"
        }
      ],
      "name": "checkUpkeep",
      "outputs": [
        {
          "internalType": "bool",
          "name": "upkeepNeeded",
          "type": "bool"
        },
        {
          "internalType": "bytes",
          "name": "",
          "type": "bytes"
        }
      ],
      "stateMutability": "nonpayable",
      "type": "function"
    },
    {
      "inputs": [],
      "name": "enterLottery",
      "outputs": [],
      "stateMutability": "payable",
      "type": "function"
    },
    {
      "inputs": [],
      "name": "getEntranceFee",
      "outputs": [
        {
          "internalType": "uint256",
          "name": "",
          "type": "uint256"
        }
      ],
      "stateMutability": "view",
      "type": "function"
    },
    {
      "inputs": [],
      "name": "getLastTimeStamp",
      "outputs": [
        {
          "internalType": "uint256",
          "name": "",
          "type": "uint256"
        }
      ],
      "stateMutability": "view",
      "type": "function"
    },
    {
      "inputs": [],
      "name": "getLotteryInterval",
      "outputs": [
        {
          "internalType": "uint256",
          "name": "",
          "type": "uint256"
        }
      ],
      "stateMutability": "view",
      "type": "function"
    },
    {
      "inputs": [],
      "name": "getLotteryState",
      "outputs": [
        {
          "internalType": "enum Lottery.LotteryState",
          "name": "",
          "type": "uint8"
        }
      ],
      "stateMutability": "view",
      "type": "function"
    },
    {
      "inputs": [],
      "name": "getNumPlayers",
      "outputs": [
        {
          "internalType": "uint256",
          "name": "",
          "type": "uint256"
        }
      ],
      "stateMutability": "view",
      "type": "function"
    },
    {
      "inputs": [
        {
          "internalType": "uint256",
          "name": "index",
          "type": "uint256"
        }
      ],
      "name": "getPlayer",
      "outputs": [
        {
          "internalType": "address",
          "name": "",
          "type": "address"
        }
      ],
      "stateMutability": "view",
      "type": "function"
    },
    {
      "inputs": [],
      "name": "getRecentWinner",
      "outputs": [
        {
          "internalType": "address",
          "name": "",
          "type": "address"
        }
      ],
      "stateMutability": "view",
      "type": "function"
    },
    {
      "inputs": [
        {
          "internalType": "bytes",
          "name": "",
          "type": "bytes"
        }
      ],
      "name": "performUpkeep",
      "outputs": [],
      "stateMutability": "nonpayable",
      "type": "function"
    },
    {
      "inputs": [
        {
          "internalType": "uint256",
          "name": "requestId",
          "type": "uint256"
        },
        {
          "internalType": "uint256[]",
          "name": "randomWords",
          "type": "uint256[]"
        }
      ],
      "name": "rawFulfillRandomWords",
      "outputs": [],
      "stateMutability": "nonpayable",
      "type": "function"
    }
  ],
  "transactionHash": "0x16369674c2ffc7472bca75dcde5ec2a99b50195ff7c179a7b075d6b75dedf332",
  "args": [
    "10000000000000000",
    "0x6168499c0cFfCaCD319c818142124B7A15E857ab",
    "0xd89b2bf150e3b9e13446986e571fb9cab24b13cea0a43ea20a6049a85cc807cc",
    "7928",
    3,
    "500000",
    30
  ],
  "numDeployments": 1,
  "solcInputHash": "8872b756d13c8adf260886792784009b",
  "bytecode": "0x6101806040523480156200001257600080fd5b506040516200175e3803806200175e8339818101604052810190620000389190620001d9565b858073ffffffffffffffffffffffffffffffffffffffff1660808173ffffffffffffffffffffffffffffffffffffffff1660601b81525050508661014081815250508573ffffffffffffffffffffffffffffffffffffffff1660a08173ffffffffffffffffffffffffffffffffffffffff1660601b815250508460c081815250508367ffffffffffffffff1660e08167ffffffffffffffff1660c01b815250508261ffff166101008161ffff1660f01b815250508163ffffffff166101208163ffffffff1660e01b815250506000600260146101000a81548160ff021916908360018111156200012d576200012c62000306565b5b02179055504260008190555080610160818152505050505050505050620003d6565b60008151905062000160816200033a565b92915050565b600081519050620001778162000354565b92915050565b6000815190506200018e816200036e565b92915050565b600081519050620001a58162000388565b92915050565b600081519050620001bc81620003a2565b92915050565b600081519050620001d381620003bc565b92915050565b600080600080600080600060e0888a031215620001fb57620001fa62000335565b5b60006200020b8a828b0162000194565b97505060206200021e8a828b016200014f565b9650506040620002318a828b0162000166565b9550506060620002448a828b01620001c2565b9450506080620002578a828b016200017d565b93505060a06200026a8a828b01620001ab565b92505060c06200027d8a828b0162000194565b91505092959891949750929550565b60006200029982620002b8565b9050919050565b6000819050919050565b600061ffff82169050919050565b600073ffffffffffffffffffffffffffffffffffffffff82169050919050565b6000819050919050565b600063ffffffff82169050919050565b600067ffffffffffffffff82169050919050565b7f4e487b7100000000000000000000000000000000000000000000000000000000600052602160045260246000fd5b600080fd5b62000345816200028c565b81146200035157600080fd5b50565b6200035f81620002a0565b81146200036b57600080fd5b50565b6200037981620002aa565b81146200038557600080fd5b50565b6200039381620002d8565b81146200039f57600080fd5b50565b620003ad81620002e2565b8114620003b957600080fd5b50565b620003c781620002f2565b8114620003d357600080fd5b50565b60805160601c60a05160601c60c05160e05160c01c6101005160f01c6101205160e01c61014051610160516112fe62000460600039600081816105b10152610a0601526000818161027e0152610610015260006104b201526000610491015260006104700152600061044f015260006104130152600081816102a401526102f801526112fe6000f3fe60806040526004361061009c5760003560e01c806355c9e9261161006457806355c9e926146101745780636b68c03c1461019f5780636e04ff0d146101ca578063c1af578514610208578063c1c244e814610212578063e55ae4e81461023d5761009c565b806309bc33a7146100a15780631fe543e3146100cc5780634585e33b146100f5578063473f1ddc1461011e5780634f11d84414610149575b600080fd5b3480156100ad57600080fd5b506100b661027a565b6040516100c39190610f3b565b60405180910390f35b3480156100d857600080fd5b506100f360048036038101906100ee9190610d14565b6102a2565b005b34801561010157600080fd5b5061011c60048036038101906101179190610c6d565b610362565b005b34801561012a57600080fd5b50610133610583565b6040516101409190610e59565b60405180910390f35b34801561015557600080fd5b5061015e6105ad565b60405161016b9190610f3b565b60405180910390f35b34801561018057600080fd5b506101896105d5565b6040516101969190610f3b565b60405180910390f35b3480156101ab57600080fd5b506101b46105e2565b6040516101c19190610f20565b60405180910390f35b3480156101d657600080fd5b506101f160048036038101906101ec9190610c6d565b6105f9565b6040516101ff929190610e9d565b60405180910390f35b61021061060e565b005b34801561021e57600080fd5b5061022761077d565b6040516102349190610f3b565b60405180910390f35b34801561024957600080fd5b50610264600480360381019061025f9190610cba565b610786565b6040516102719190610e59565b60405180910390f35b60007f0000000000000000000000000000000000000000000000000000000000000000905090565b7f000000000000000000000000000000000000000000000000000000000000000073ffffffffffffffffffffffffffffffffffffffff163373ffffffffffffffffffffffffffffffffffffffff161461035457337f00000000000000000000000000000000000000000000000000000000000000006040517f1cf993f400000000000000000000000000000000000000000000000000000000815260040161034b929190610e74565b60405180910390fd5b61035e82826107ce565b5050565b61036a610a01565b6103e4576000544261037c9190611013565b47600180549050600260149054906101000a900460ff1660018111156103a5576103a46111e3565b5b6040517fb29f5aac0000000000000000000000000000000000000000000000000000000081526004016103db9493929190610f56565b60405180910390fd5b6001600260146101000a81548160ff0219169083600181111561040a576104096111e3565b5b021790555060007f000000000000000000000000000000000000000000000000000000000000000073ffffffffffffffffffffffffffffffffffffffff16635d3b1d307f00000000000000000000000000000000000000000000000000000000000000007f00000000000000000000000000000000000000000000000000000000000000007f00000000000000000000000000000000000000000000000000000000000000007f000000000000000000000000000000000000000000000000000000000000000060016040518663ffffffff1660e01b81526004016104f3959493929190610ecd565b602060405180830381600087803b15801561050d57600080fd5b505af1158015610521573d6000803e3d6000fd5b505050506040513d601f19601f820116820180604052508101906105459190610ce7565b90507f21cba57842825f0da2951b3a1921c17b682eb1d386db71263ee1788964b58c5b816040516105769190610f3b565b60405180910390a1505050565b6000600260009054906101000a900473ffffffffffffffffffffffffffffffffffffffff16905090565b60007f0000000000000000000000000000000000000000000000000000000000000000905090565b6000600180549050905090565b6000600260149054906101000a900460ff16905090565b60006060610605610a01565b91509250929050565b7f0000000000000000000000000000000000000000000000000000000000000000341015610668576040517fdf5637bc00000000000000000000000000000000000000000000000000000000815260040160405180910390fd5b6000600181111561067c5761067b6111e3565b5b600260149054906101000a900460ff16600181111561069e5761069d6111e3565b5b146106d5576040517f823ea8bb00000000000000000000000000000000000000000000000000000000815260040160405180910390fd5b6001339080600181540180825580915050600190039060005260206000200160009091909190916101000a81548173ffffffffffffffffffffffffffffffffffffffff021916908373ffffffffffffffffffffffffffffffffffffffff1602179055503373ffffffffffffffffffffffffffffffffffffffff167f679f614452adf22ded244a73c965e0f1c66071681a0b8be66a1d2759d203e8ab60405160405180910390a2565b60008054905090565b60006001828154811061079c5761079b611212565b5b9060005260206000200160009054906101000a900473ffffffffffffffffffffffffffffffffffffffff169050919050565b6000600180549050826000815181106107ea576107e9611212565b5b60200260200101516107fc9190611154565b905060006001828154811061081457610813611212565b5b9060005260206000200160009054906101000a900473ffffffffffffffffffffffffffffffffffffffff16905080600260006101000a81548173ffffffffffffffffffffffffffffffffffffffff021916908373ffffffffffffffffffffffffffffffffffffffff160217905550600067ffffffffffffffff81111561089d5761089c611241565b5b6040519080825280602002602001820160405280156108cb5781602001602082028036833780820191505090505b50600190805190602001906108e1929190610aa8565b504260008190555060008173ffffffffffffffffffffffffffffffffffffffff164760405161090f90610e44565b60006040518083038185875af1925050503d806000811461094c576040519150601f19603f3d011682016040523d82523d6000602084013e610951565b606091505b505090508061098c576040517f061104de00000000000000000000000000000000000000000000000000000000815260040160405180910390fd5b6000600260146101000a81548160ff021916908360018111156109b2576109b16111e3565b5b02179055508173ffffffffffffffffffffffffffffffffffffffff167fe2da3920e2b60f100bf6bfd38a86490d8b854624f5481f30e629890633b094ca60405160405180910390a25050505050565b6000807f000000000000000000000000000000000000000000000000000000000000000060005442610a339190611013565b1190506000806001811115610a4b57610a4a6111e3565b5b600260149054906101000a900460ff166001811115610a6d57610a6c6111e3565b5b14905060008060018054905011905060008047119050838015610a8d5750825b8015610a965750805b8015610a9f5750815b94505050505090565b828054828255906000526020600020908101928215610b21579160200282015b82811115610b205782518260006101000a81548173ffffffffffffffffffffffffffffffffffffffff021916908373ffffffffffffffffffffffffffffffffffffffff16021790555091602001919060010190610ac8565b5b509050610b2e9190610b32565b5090565b5b80821115610b4b576000816000905550600101610b33565b5090565b6000610b62610b5d84610fc0565b610f9b565b90508083825260208201905082856020860282011115610b8557610b8461127a565b5b60005b85811015610bb55781610b9b8882610c43565b845260208401935060208301925050600181019050610b88565b5050509392505050565b600082601f830112610bd457610bd3611275565b5b8135610be4848260208601610b4f565b91505092915050565b60008083601f840112610c0357610c02611275565b5b8235905067ffffffffffffffff811115610c2057610c1f611270565b5b602083019150836001820283011115610c3c57610c3b61127a565b5b9250929050565b600081359050610c52816112b1565b92915050565b600081519050610c67816112b1565b92915050565b60008060208385031215610c8457610c83611284565b5b600083013567ffffffffffffffff811115610ca257610ca161127f565b5b610cae85828601610bed565b92509250509250929050565b600060208284031215610cd057610ccf611284565b5b6000610cde84828501610c43565b91505092915050565b600060208284031215610cfd57610cfc611284565b5b6000610d0b84828501610c58565b91505092915050565b60008060408385031215610d2b57610d2a611284565b5b6000610d3985828601610c43565b925050602083013567ffffffffffffffff811115610d5a57610d5961127f565b5b610d6685828601610bbf565b9150509250929050565b610d7981611047565b82525050565b610d8881611059565b82525050565b610d9781611065565b82525050565b6000610da882610fec565b610db28185610ff7565b9350610dc28185602086016110f0565b610dcb81611289565b840191505092915050565b610ddf816110de565b82525050565b6000610df2600083611008565b9150610dfd8261129a565b600082019050919050565b610e1181611082565b82525050565b610e20816110b0565b82525050565b610e2f816110ba565b82525050565b610e3e816110ca565b82525050565b6000610e4f82610de5565b9150819050919050565b6000602082019050610e6e6000830184610d70565b92915050565b6000604082019050610e896000830185610d70565b610e966020830184610d70565b9392505050565b6000604082019050610eb26000830185610d7f565b8181036020830152610ec48184610d9d565b90509392505050565b600060a082019050610ee26000830188610d8e565b610eef6020830187610e35565b610efc6040830186610e08565b610f096060830185610e26565b610f166080830184610e26565b9695505050505050565b6000602082019050610f356000830184610dd6565b92915050565b6000602082019050610f506000830184610e17565b92915050565b6000608082019050610f6b6000830187610e17565b610f786020830186610e17565b610f856040830185610e17565b610f926060830184610e17565b95945050505050565b6000610fa5610fb6565b9050610fb18282611123565b919050565b6000604051905090565b600067ffffffffffffffff821115610fdb57610fda611241565b5b602082029050602081019050919050565b600081519050919050565b600082825260208201905092915050565b600081905092915050565b600061101e826110b0565b9150611029836110b0565b92508282101561103c5761103b611185565b5b828203905092915050565b600061105282611090565b9050919050565b60008115159050919050565b6000819050919050565b600081905061107d8261129d565b919050565b600061ffff82169050919050565b600073ffffffffffffffffffffffffffffffffffffffff82169050919050565b6000819050919050565b600063ffffffff82169050919050565b600067ffffffffffffffff82169050919050565b60006110e98261106f565b9050919050565b60005b8381101561110e5780820151818401526020810190506110f3565b8381111561111d576000848401525b50505050565b61112c82611289565b810181811067ffffffffffffffff8211171561114b5761114a611241565b5b80604052505050565b600061115f826110b0565b915061116a836110b0565b92508261117a576111796111b4565b5b828206905092915050565b7f4e487b7100000000000000000000000000000000000000000000000000000000600052601160045260246000fd5b7f4e487b7100000000000000000000000000000000000000000000000000000000600052601260045260246000fd5b7f4e487b7100000000000000000000000000000000000000000000000000000000600052602160045260246000fd5b7f4e487b7100000000000000000000000000000000000000000000000000000000600052603260045260246000fd5b7f4e487b7100000000000000000000000000000000000000000000000000000000600052604160045260246000fd5b600080fd5b600080fd5b600080fd5b600080fd5b600080fd5b6000601f19601f8301169050919050565b50565b600281106112ae576112ad6111e3565b5b50565b6112ba816110b0565b81146112c557600080fd5b5056fea26469706673582212207283b2776988a6c1f4399b74754c7755f4eff0fd58f7f6b41b4d868f3cee313a64736f6c63430008070033",
  "devdoc": {
    "author": "Gianelli Marco",
    "details": "This implements the Chainlink VRF Version 2 and Chainlink Keepers",
    "kind": "dev",
    "methods": {
      "checkUpkeep(bytes)": {
        "details": "This is the function that the Chainlink Keeper nodes call looking for `upkeepNeeded` to return True. To return true we must check this conditions: 1. The time interval has passed between Lottery runs 2. The lottery is open 3. The contract have players 4. The contract has ETH 5. Implicity, your subscription is funded with LINK"
      }
    },
    "title": "Smart Lottery Contract",
    "version": 1
  },
  "userdoc": {
    "kind": "user",
    "methods": {},
    "notice": "This contract is for creating an untemperable decentralized lottery",
    "version": 1
  },
  "storageLayout": {
    "storage": [
      {
        "astId": 923,
        "contract": "contracts/Lottery.sol:Lottery",
        "label": "s_lastTimeStamp",
        "offset": 0,
        "slot": "0",
        "type": "t_uint256"
      },
      {
        "astId": 928,
        "contract": "contracts/Lottery.sol:Lottery",
        "label": "s_players",
        "offset": 0,
        "slot": "1",
        "type": "t_array(t_address_payable)dyn_storage"
      },
      {
        "astId": 930,
        "contract": "contracts/Lottery.sol:Lottery",
        "label": "s_recentWinner",
        "offset": 0,
        "slot": "2",
        "type": "t_address"
      },
      {
        "astId": 933,
        "contract": "contracts/Lottery.sol:Lottery",
        "label": "s_lotteryState",
        "offset": 20,
        "slot": "2",
        "type": "t_enum(LotteryState)907"
      }
    ],
    "types": {
      "t_address": {
        "encoding": "inplace",
        "label": "address",
        "numberOfBytes": "20"
      },
      "t_address_payable": {
        "encoding": "inplace",
        "label": "address payable",
        "numberOfBytes": "20"
      },
      "t_array(t_address_payable)dyn_storage": {
        "base": "t_address_payable",
        "encoding": "dynamic_array",
        "label": "address payable[]",
        "numberOfBytes": "32"
      },
      "t_enum(LotteryState)907": {
        "encoding": "inplace",
        "label": "enum Lottery.LotteryState",
        "numberOfBytes": "1"
      },
      "t_uint256": {
        "encoding": "inplace",
        "label": "uint256",
        "numberOfBytes": "32"
      }
    }
  }
}